:020000040800F2
:1000000040710524390300086D7F00084779000816
:10001000697F0008AF0500087DA00008000000000F
:100020000000000000000000000000005B860008E7
:10003000510B000800000000717F00085D86000879
:100040005303000853030008530300085303000838
:100050005303000853030008530300085303000828
:10006000530300085303000853030008B5050008B4
:10007000C5050008D5050008530300085303000810
:10008000530300085303000853030008590B0008EA
:10009000BD0B000853030008530300085303000876
:1000A00053030008530300085303000853030008D8
:1000B00053030008530300085303000853030008C8
:1000C00053030008530300085303000853030008B8
:1000D0005303000853030008530300086DA00008F1
:1000E0005303000853030008000000006188000863
:1000F000898800087188000853030008530300082A
:100100005303000853030008530300085303000877
:100110005303000853030008418800085188000871
:100120005303000853030008530300085303000857
:100130005303000853030008530300085303000847
:1001400000000000000000000000000000000000AF
:100150005303000853030008530300085303000827
:100160005303000853030008530300085303000817
:100170005303000853030008530300080000000065
:10018000530300085303000853030008758E00084A
:1001900053030008530300085303000853030008E7
:1001A00053030008530300085303000853030008D7
:1001B00053030008530300085303000853030008C7
:1001C00053030008530300085303000853030008B7
:1001D00053030008530300085303000853030008A7
:1001E0005303000853030008530300085303000897
:1001F0005303000853030008530300085303000887
:100200005303000853030008530300085303000876
:100210005303000853030008530300085303000866
:1002200053030008530300085303000800000000B4
:1002300053030008530300080000000053030008A4
:100240005303000853030008530300085303000836
:100250005303000853030008530300085303000826
:100260005303000853030008530300085303000816
:100270005303000853030008530300080000000064
:100280005303000853030008530300080000000054
:10029000000000005303000800F002F800F03CF8F2
:1002A0000AA090E8000C82448344AAF10107DA45D1
:1002B00001D100F031F8AFF2090EBAE80F0013F0E7
:1002C000010F18BFFB1A43F00103184784A8000070
:1002D000A4A80000103A24BF78C878C1FAD8520701
:1002E00024BF30C830C144BF04680C6070470000B0
:1002F0000023002400250026103A28BF78C1FBD82F
:10030000520728BF30C148BF0B6070471FB50AF0C5
:1003100021FB1FBD10B510BD00F014F91146FFF709
:10032000F5FF0AF08DFA00F032F903B4FFF7F2FF9F
:1003300003BC00F035F90000094880470948004730
:10034000FEE7FEE7FEE7FEE7FEE7FEE7FEE7FEE785
:10035000FEE7FEE704480549054A064B70470000E2
:100360004587000899020008406101244071052476
:10037000405105244051052453EA020C00F06980E5
:100380002DE9F04B4FF00006002B1FBFB3FA83F5A9
:1003900003FA05F424FA05F65E4012BF1643B2FADA
:1003A00082F502FA05F4C5F120051EBF22FA05FC0C
:1003B00044EA0C04203556EA044C4FEA144418BFB2
:1003C000641C4FF000084FF00009904271EB030CE1
:1003D00039D3002919BFB1FA81F701FA07F6B0FA4B
:1003E00080F700FA07F6C7F120071EBF20FA07FCC6
:1003F00046EA0C062037B6FBF4FCA7EB0507103FD6
:1004000007F01F0BCBF120060CFA0BFB2CFA06F6BB
:1004100044BFB3460026202FA4BF5E464FF0000B1A
:100420005BEA060C08BF4FF0010B19EB0B09ABFBA5
:10043000027C48EB0608C01B06FB02CC0BFB03CC7E
:1004400071EB0C01C1E70B46024641464846BDE848
:10045000F08B13B54FF000004FF00001AFF30080B8
:10046000BDE81C40704710B5203AC0F00B80B1E8E1
:100470001850203AA0E81850B1E81850A0E81850D9
:10048000BFF4F5AF5FEA027C24BFB1E81850A0E8E2
:10049000185044BF18C918C0BDE810405FEA827CFC
:1004A00024BF51F8043B40F8043B08BF7047D20713
:1004B00028BF31F8023B48BF11F8012B28BF20F8B4
:1004C000023B48BF00F8012B70474FF0000200B517
:1004D000134694469646203922BFA0E80C50A0E867
:1004E0000C50B1F12001BFF4F7AF090728BFA0E815
:1004F0000C5048BF0CC05DF804EB890028BF40F8E1
:10050000042B08BF704748BF20F8022B11F0804F22
:1005100018BF00F8012B704770477047704710B53F
:1005200000F008F8006810BD10B5044600F002F8AD
:10053000046010BD00487047DC600124004870472B
:10054000DC6001247546FFF7F9FFAE4605006946F9
:10055000534620F00700854618B020B5FFF7FAFE95
:10056000BDE820404FF000064FF000074FF00008B4
:100570004FF0000B21F00701AC46ACE8C009ACE835
:10058000C009ACE8C009ACE8C0098D46704710B599
:100590000446AFF300802046BDE81040FFF7C5BE1B
:1005A00001491820ABBEFEE726000200704700BFDD
:1005B000FEE7000010B5024801F00EFB10BD000080
:1005C000DC5D012410B5024801F006FB10BD0000FF
:1005D0003C5B012410B5024801F0FEFA10BD00009A
:1005E000645D01240146374A0868904249D0354A83
:1005F00018320868904244D0324A3032086890423B
:100600003FD0304A4832086890423AD02D4A603292
:100610000868904235D02B4A78320868904230D032
:10062000284A9032086890422BD0264AA83208689F
:10063000904226D0244A0868904222D0224A18329A
:10064000086890421DD0204A30320868904218D085
:100650001D4A48320868904213D01B4A603208682D
:1006600090420ED0184A78320868904209D0164A53
:1006700090320868904204D0134AA8320868904229
:1006800001D1012000E00020B0B10A78103A18230F
:10069000B2FBF3F000F007020C4B9A5CCA6503282A
:1006A00005D90A686FF30902121D8A6503E00A681A
:1006B0006FF309028A6503E0086820F0FF0088658F
:1006C000886D7047100002401004024094A9000891
:1006D00010B502682B4C0368A34222D0294C143475
:1006E0000368A3421DD0274C28340368A34218D0C6
:1006F000244C3C340368A34213D0224C503403688A
:10070000A3420ED01F4C64340368A34209D01D4C91
:1007100078340368A34204D01A4C8C340368A34293
:1007200001D1012300E000238BB10378083B14249E
:10073000B3FBF4F1144B03EB81030366124B8033DC
:10074000436601F01F040123A340836618E0037889
:10075000103B1824B3FBF4F10C4B9A4204D80B4B1A
:10076000A83B9A4200D30831094B03EB810303668F
:10077000074B8033436601F01F040123A3408366C7
:1007800010BD00000854025800580258B804024036
:10079000000802400179A9B3082940D8204B02681B
:1007A0009A4222D01E4B143302689A421DD01C4B31
:1007B000283302689A4218D0194B3C3302689A4297
:1007C00013D0174B503302689A420ED0144B643347
:1007D00002689A4209D0124B783302689A4204D0D8
:1007E0000F4B8C3302689A4201D1012200E00022B3
:1007F0004AB14A1E0B4B03EB8202C266094A4032E1
:10080000026708E00BE04A1E074B03EB8202C26658
:10081000054A403202674A1E0123934043677047EE
:1008200008540258005902580009024001460020AD
:100830008A69D2B98A6A32B1012A0DD0022A03D05C
:10084000032A10D10EE000BFCA6A02F08072B2F132
:10085000807F00D1012007E0CA6AB2F1C07F00D1D9
:10086000012001E000E000BF36E08A69B2F5005FD8
:100870001BD18A6A32B1012A07D0022A03D0032A87
:1008800011D10AE000BF01200EE0CA6A02F08072B6
:10089000B2F1807F00D1012006E0CA6AB2F1C07FC8
:1008A00000D1012000E000BF16E08A6A32B1012ABF
:1008B00005D0022A04D0032A0CD103E000BF00BFF8
:1008C000012008E0CA6A02F08072B2F1807F00D194
:1008D000012000E000BF00BF70470000F0B5856D4B
:1008E000846D984F0668BE4270D0964F18370668E0
:1008F000BE426BD0934F30370668BE4266D0914FF0
:1009000048370668BE4261D08E4F60370668BE42E7
:100910005CD08C4F78370668BE4257D0894F9037ED
:100920000668BE4252D0874FA8370668BE424DD0F7
:10093000854F0668BE4249D0834F18370668BE42CD
:1009400044D0814F30370668BE423FD07E4F483793
:100950000668BE423AD07C4F60370668BE4235D04A
:10096000794F78370668BE4230D0774F90370668A7
:10097000BE422BD0744FA8370668BE4226D0734FB4
:100980000668BE4222D0714F14370668BE421DD0A1
:100990006E4F28370668BE4218D06C4F3C37066849
:1009A000BE4213D0694F50370668BE420ED0674F23
:1009B00064370668BE4209D0644F78370668BE4285
:1009C00004D0624F8C370668BE4201D1012600E098
:1009D00000263EB1D0E919767E60C66E16B1D0E928
:1009E0001C767E60574F0668BE4249D0554F183777
:1009F0000668BE4244D0534F30370668BE423FD0EF
:100A0000504F48370668BE423AD04E4F60370668AE
:100A1000BE4235D04B4F78370668BE4230D0494F82
:100A200090370668BE422BD0464FA8370668BE42B4
:100A300026D0454F0668BE4222D0434F183706687D
:100A4000BE421DD0404F30370668BE4218D03E4FE0
:100A500048370668BE4213D03B4F60370668BE4237
:100A60000ED0394F78370668BE4209D0364F9037DE
:100A70000668BE4204D0344FA8370668BE4201D192
:100A8000012600E00026DEB190F85C6006F01F074A
:100A90003F26BE40AE600668366826F480260768AA
:100AA0003E60066873608668402E04D10668B260B6
:100AB0000668F16044E00668B1600668F2603FE0F5
:100AC000224F0668BE4222D0204F14370668BE422D
:100AD0001DD01E4F28370668BE4218D01B4F3C372A
:100AE0000668BE4213D0194F50370668BE420ED07A
:100AF000164F64370668BE4209D0144F783706682F
:100B0000BE4204D0114F8C370668BE4201D1012687
:100B100000E00026A6B190F85C6006F01F070126F1
:100B2000BE406660066873608668402E04D1066821
:100B3000B2600668F16003E00668B1600668F260C2
:100B4000F0BD00001000024010040240085402589A
:100B5000704772B600BFFEE710B5024802F00EFC07
:100B600010BD00009058012410B58AB00446002042
:100B7000029003900220049001200590002006902E
:100B8000079002A9204602F08CFA10B102200AB0A8
:100B900010BD00200346022211460090204602F0BC
:100BA000D4FA08B10220F2E7204603F021F800222F
:100BB0000121204602F020FA0020E8E710B50248A3
:100BC00002F0DCFB10BD00003059012410B58AB0E2
:100BD000044600200290039002200490059000201B
:100BE0000690079002A9204602F05BFA10B102209D
:100BF0000AB010BD4FF08040029002200390049094
:100C0000059000200690079002A9204602F049FABC
:100C100008B10220ECE700200346022211460090B2
:100C2000204602F092FA08B10220E1E724200649AA
:100C30000860204602F0DCFF00221021204602F06E
:100C4000DBF90020D4E7000080A4004010B5014685
:100C50004A6B0868D0F884004FF6FC74A04340EA61
:100C600082000C68C4F884000868D0F8840020F47E
:100C70007F04088F44EA00400C68C4F88400886B45
:100C800002440868D0F888004FF6FC74A04340EA9C
:100C900082000C68C4F888000868D0F8880020F446
:100CA000FE04888F44EA00400C68C4F88800C86BD2
:100CB00002EB40020868D0F8A0004FF6FC74A04395
:100CC00040EA82000C68C4F8A0000868D0F8A000D0
:100CD00020F4FE044020405A44EA00400C68C4F866
:100CE000A000D1E9104004FB00220868D0F8B00051
:100CF0004FF6FC74A04340EA82000C68C4F8B000D0
:100D00000868D0F8B00020F4FE04B1F8480044EAC6
:100D100000400C68C4F8B000D1E9124004FB002286
:100D20000868D0F8AC004FF6FC74A04340EA82009B
:100D30000C68C4F8AC00D1E9144004FB0022086838
:100D4000D0F8F0004FF6FC74A04340EA82000C6833
:100D5000C4F8F0000868D0F8F00020F47C14B1F872
:100D6000580044EA00400C68C4F8F000886D02EBBB
:100D700040020868D0F8C0004FF6FC74A04340EA77
:100D800082000C68C4F8C0000868D0F8C00020F4E5
:100D90007C14B1F85C0044EA00400C68C4F8C00060
:100DA0000868D0F8C00020F07C5491F8600044EA54
:100DB00000600C68C4F8C0002A4C486B04EB80004B
:100DC000C866CC6E886B04EB80040C670C6FC86B34
:100DD00004EBC0044C67D1E9100460434C6F04EB92
:100DE00080048C67D1E9120460438C6F04EB8004AB
:100DF000CC67D1E914046043CC6F04EB80048020FD
:100E000044504458886D04EBC004842044508C6ED8
:100E1000C86D60438424645804EB800488204450E7
:100E20008C6E086E60438824645804EB8004902024
:100E3000445040580C4CA04209D99831486840F0C1
:100E400020004860032001F89809012010BDCB6EF6
:100E500002E0002018601B1D902040589842F8D8EE
:100E60000020F3E700AC0040FCD3004010B5034C79
:100E70000368A34200D000BF10BD000000A00040E6
:100E8000F0B52DED0A8B99B006460F4614460020AA
:100E900018E0002100EB40026B4603EBC202116137
:100EA0009FEDFB0B00EB40016A4602EBC10181EDB7
:100EB000000B9FEDF70B00EB400102EBC10181ED50
:100EC000020B401C0428E4DB002597E105EB8500BC
:100ED00006EB4000006800EE100ADFEDEF0A80EE3E
:100EE000201AB0EE41BA05EB850006EB40004068E1
:100EF00000EE100AF8EE400A9FEDE81A80EE810A33
:100F0000F1EE000A80EE201AB0EE419AB7EEC90A5F
:100F1000B0EEC00B9FEDE21BB4EEC10BF1EE10FA88
:100F200000D26AE1B7EECB0A9FEDDF1B20EE010B8A
:100F30009FEDDF1B80EE012BF7EEC29BB7EEE90AB7
:100F400009F0D2F8B1EE400BB7EEC91A20EE010B52
:100F5000B7EEC0ABB1EE690AB7EEC00A09F01CF9F2
:100F6000B1EE400BB7EEC91A20EE010BF7EEC0ABA5
:100F7000D14890ED000AB7EEC00A09F0B5F8B7EE17
:100F8000CA1A20EE01CBCC4890ED000AB7EEC00A99
:100F900009F002F9B7EEEA1A01EE40CBB7EECC0B3E
:100FA000B0EE408AC44890ED000AB7EEC00A09F0DE
:100FB000F3F8B7EECA1A20EE01CBBF4890ED000A55
:100FC000B7EEC00A09F090F8B7EEEA1A01EE00CBCE
:100FD000B7EECC0BF0EE408AB84890ED000A38EE40
:100FE000000AB0EE408AB64890ED000A38EE800A5A
:100FF000F0EE408AB3480560B34890ED000AF7EE82
:10100000000A30EE600AB4EEC80AF1EE10FA33D8E6
:1010100090ED000AF7EE000A30EE200AB4EEC80A9E
:10102000F1EE10FA28DB90ED010AF7EE000A30EE3F
:10103000600AB4EEE80AF1EE10FA1DD890ED010A4C
:10104000F7EE000A30EE200AB4EEE80AF1EE10FAEC
:1010500012DB9DED000BB7EEC81A30EE010B8DEDE3
:10106000000B9DED020BB7EEE81A30EE010B8DED93
:10107000020B0498401C0490944890ED000AF7EE8F
:10108000000A30EE600AB4EEC80AF1EE10FA33D866
:1010900090ED000AF7EE000A30EE200AB4EEC80A1E
:1010A000F1EE10FA28DB90ED010AF7EE000A30EEBF
:1010B000600AB4EEE80AF1EE10FA1DD890ED010ACC
:1010C000F7EE000A30EE200AB4EEE80AF1EE10FA6C
:1010D00012DB9DED060BB7EEC81A30EE010B8DED5D
:1010E000060B9DED080BB7EEE81A30EE010B8DED07
:1010F000080B0A98401C0A90754890ED000AF7EE1C
:10110000000A30EE600AB4EEC80AF1EE10FA33D8E5
:1011100090ED000AF7EE000A30EE200AB4EEC80A9D
:10112000F1EE10FA28DB90ED010AF7EE000A30EE3E
:10113000600AB4EEE80AF1EE10FA1DD890ED010A4B
:10114000F7EE000A30EE200AB4EEE80AF1EE10FAEB
:1011500012DB9DED0C0BB7EEC81A30EE010B8DEDD6
:101160000C0B9DED0E0BB7EEE81A30EE010B8DED7A
:101170000E0B1098401C1090564890ED000AF7EEA8
:10118000000A30EE600AB4EEC80AF1EE10FA33D865
:1011900090ED000AF7EE000A30EE200AB4EEC80A1D
:1011A000F1EE10FA28DB90ED010AF7EE000A30EEBE
:1011B000600AB4EEE80AF1EE10FA1DD890ED010ACB
:1011C000F7EE000A30EE200AB4EEE80AF1EE10FA6B
:1011D00012DB9DED120BB7EEC81A30EE010B8DED50
:1011E000120B9DED140BB7EEE81A30EE010B8DEDEE
:1011F000140B1698401C169000BF6D1CBD42FFF4E6
:1012000065AE0020A4E000EB40016A4602EBC1019C
:101210000969E1B300EB400102EBC1010969012951
:1012200061DD00EB400102EBC10191ED001B00EB21
:10123000400102EBC10191ED040AB8EEC00B81EE52
:10124000002BB7EEC20B00EB400104EB810181EDF6
:10125000000A00EB400102EBC10191ED021B00EB23
:10126000400102EBC10191ED040AB8EEC00B81EE22
:10127000002BB7EEC20B00EB400104EB810181EDC6
:10128000010A00EB400102EBC101096924E050E0D2
:1012900000000000000000000000804600007A44CA
:1012A000000000A09999A93F00000060FB210940BF
:1012B0000000000000806640180000241000002498
:1012C000140000240C00002460A900086CA9000888
:1012D00078A9000884A9000800EB400204EB820210
:1012E0009160B0B915E09FED1E0A00EB400104EBE0
:1012F000810181ED000A9FED1A0A00EB400104EB29
:10130000810181ED010A002100EB400204EB820221
:10131000916094ED060AB5EEC00AF1EE10FA06D11E
:1013200094ED070AB5EEC00AF1EE10FA0FD000BF37
:101330000DE09FED0B0A00EB400104EB810181ED14
:10134000010A00EB400104EB810181ED000A401C21
:101350000428FFF658AF19B0BDEC0A8BF0BD0000B1
:10136000000000002DE9F041044602F06FFD8046C8
:1013700014B90120BDE8F08194F83500022808D0A6
:101380008020606500BF002084F8340000BF012089
:10139000F0E7FE492068884249D0FC4918312068AE
:1013A000884244D0F9493031206888423FD0F7491B
:1013B0004831206888423AD0F44960312068884238
:1013C00035D0F24978312068884230D0EF499031E9
:1013D000206888422BD0ED49A8312068884226D069
:1013E000EB492068884222D0E949183120688842B8
:1013F0001DD0E74930312068884218D0E44948318F
:101400002068884213D0E2496031206888420ED0BB
:10141000DF4978312068884209D0DD499031206861
:10142000884204D0DA49A8312068884201D10120DD
:1014300000E0002068B12068006820F01E002168EC
:1014400008602068406920F08000216848612568B4
:1014500006E02068006820F00E002168086025681A
:10146000CA492068884270D0C8491831206888422B
:101470006BD0C64930312068884266D0C3494831B4
:101480002068884261D0C1496031206888425CD0C0
:10149000BE4978312068884257D0BC4990312068D5
:1014A000884252D0B949A831206888424DD0B84905
:1014B0002068884249D0B64918312068884244D013
:1014C000B3493031206888423FD0B1494831206863
:1014D00088423AD0AE4960312068884235D0AC4964
:1014E00078312068884230D0A949903120688842FC
:1014F0002BD0A749A8312068884226D0A54920686A
:10150000884222D0A3491431206888421DD0A149C5
:1015100028312068884218D09E493C312068884292
:1015200013D09C495031206888420ED099496431CB
:101530002068884209D0974978312068884204D0D1
:1015400094498C312068884201D1012000E00020BC
:1015500028B1206E006820F48070216E08608B49ED
:101560002068884249D0894918312068884244D08F
:1015700086493031206888423FD08449483120680C
:1015800088423AD0814960312068884235D07F490D
:1015900078312068884230D07C4990312068884278
:1015A0002BD07A49A8312068884226D07849206813
:1015B000884222D076491831206888421DD074496B
:1015C00030312068884218D07149483120688842FB
:1015D00013D06F496031206888420ED06C49783151
:1015E0002068884209D06A4990312068884204D036
:1015F0006749A8312068884206D12068006820F039
:1016000001002168086005E02068006820F0010002
:101610002168086011E002F019FCA0EB0800052821
:101620000BD920206065032084F8350000BF00201E
:1016300084F8340000BF01209CE6286800F0010017
:101640000028E8D151492068884249D04F491831D3
:101650002068884244D04D493031206888423FD0CC
:101660004A494831206888423AD048496031206868
:10167000884235D0454978312068884230D0434986
:101680009031206888422BD04049A8312068884298
:1016900026D03F492068884222D03D491831206831
:1016A00088421DD03A4930312068884218D03849E4
:1016B00048312068884213D035496031206888421B
:1016C0000ED0334978312068884209D030499031B2
:1016D0002068884204D02E49A8312068884201D170
:1016E000012000E0002040B1A66D94F85C0000F0FD
:1016F0001F013F208840B06007E0A76D94F85C00B0
:1017000000F01F010120884078602049206888424D
:1017100076D01E4918312068884271D01B4930317B
:10172000206888426CD0194948312068884267D0C7
:10173000164960312068884262D0144978312068A7
:1017400088425DD0114990312068884258D00F49B5
:10175000A8312068884253D00D49206888424FD074
:101760000B491831206888424AD009493031206835
:10177000884245D0064948312068884240D0044913
:101780006031206888423BD0014905E010000240EA
:1017900010040240085402587831206888422FD043
:1017A0002549206888422BD0234918312068884277
:1017B00026D022492068884222D02049143120684E
:1017C00088421DD01D4928312068884218D01B4905
:1017D0003C312068884213D0184950312068884233
:1017E0000ED0164964312068884209D013497831F7
:1017F0002068884204D011498C312068884201D188
:10180000012000E0002068B1D4E919104860E06EC2
:1018100040B1E06E006820F48070E16E0860D4E9A9
:101820001C104860012084F8350000BF002084F8B7
:10183000340000BF00BF9DE5A004024008540258D8
:1018400070B504460CB9012070BD94F8350002282B
:1018500003D0802060650120F6E7DC4920688842DB
:1018600049D0DA4918312068884244D0D74930310C
:10187000206888423FD0D5494831206888423AD014
:10188000D24960312068884235D0D049783120680B
:10189000884230D0CD499031206888422BD0CB4946
:1018A000A8312068884226D0C9492068884222D0C1
:1018B000C7491831206888421DD0C5493031206899
:1018C000884218D0C24948312068884213D0C049A4
:1018D0006031206888420ED0BD4978312068884246
:1018E00009D0BB4990312068884204D0B849A8315A
:1018F0002068884201D1012000E00020F0B30420DC
:1019000084F83500B149206888424BD0AF4918317E
:101910002068884246D0AD4930312068884241D0A5
:10192000AA494831206888423CD0A84960312068E3
:10193000884237D0A54978312068884232D0A349FF
:101940009031206888422DD0A049A8312068884273
:1019500028D09F492068884224D09D4918312068AA
:1019600088421FD09A493031206888421AD098495D
:1019700048312068884215D0954900E020E0603168
:10198000206888420ED0924978312068884209D078
:101990008F4990312068884204D08D49A831206851
:1019A000884206D12068006820F0010021680860A4
:1019B00009E12068006820F001002168086002E168
:1019C0002068006820F00E00216808607F492068C8
:1019D000884249D07D4918312068884244D07B49EB
:1019E0003031206888423FD07849483120688842A9
:1019F0003AD0764960312068884235D073497831D1
:101A00002068884230D071499031206888422BD0BC
:101A10006E49A8312068884226D06D4920688842E6
:101A200022D06B491831206888421DD06849303176
:101A30002068884218D0664948312068884213D00F
:101A400063496031206888420ED06149783120684E
:101A5000884209D05E4990312068884204D05C49B0
:101A6000A8312068884206D12068006820F0010073
:101A70002168086005E02068006820F00100216806
:101A8000086052492068884270D050491831206857
:101A900088426BD04D4930312068884266D04B492E
:101AA00048312068884261D04849603120688842C6
:101AB0005CD0464978312068884257D043499031FC
:101AC0002068884252D04149A831206888424DD0D0
:101AD0003F492068884249D03D49183120688842F2
:101AE00044D03B493031206888423FD038494831A2
:101AF000206888423AD0364960312068884235D023
:101B0000334978312068884230D03149903120689B
:101B100088422BD02E49A8312068884226D02D49F2
:101B20002068884222D02B491431206888421DD079
:101B3000284928312068884218D026493C3120683D
:101B4000884213D023495031206888420ED0214961
:101B500064312068884209D01E4978312068884263
:101B600004D01C498C312068884201D1012000E05A
:101B70000020D8B1206E006820F48070216E0860CB
:101B8000A56D94F85C0000F01F010120884068609A
:101B9000D4E919104860E06E40B1E06E006820F4AE
:101BA0008070E16E0860D4E91C104860012084F860
:101BB000350000BF002084F8340000BF206D10B154
:101BC0002046216D884700203EE6000010000240BC
:101BD00010040240085402582DE9F84F0446002032
:101BE0000090FE4800684FF41651B0FBF1FAA66D64
:101BF000D4F858803768D8F80090F94920688842AE
:101C000049D0F74918312068884244D0F44930312E
:101C1000206888423FD0F2494831206888423AD053
:101C2000EF4960312068884235D0ED49783120682D
:101C3000884230D0EA499031206888422BD0E84968
:101C4000A8312068884226D0E6492068884222D000
:101C5000E4491831206888421DD0E24930312068BB
:101C6000884218D0DF4948312068884213D0DD49C6
:101C70006031206888420ED0DA4978312068884285
:101C800009D0D84990312068884204D0D549A8317C
:101C90002068884201D1012000E0002000287DD08A
:101CA00094F85C0000F01F010820884038400028AC
:101CB00068D0CB492068884249D0C949183120688A
:101CC000884244D0C6493031206888423FD0C44958
:101CD0004831206888423AD0C14960312068884242
:101CE00035D0BF4978312068884230D0BC49903126
:101CF000206888422BD0BA49A8312068884226D073
:101D0000B8492068884222D0B649183120688842F4
:101D10001DD0B44930312068884218D0B1494831CB
:101D20002068884213D0AF496031206888420ED0C5
:101D3000AC4978312068884209D0AA49903120689E
:101D4000884204D0A749A8312068884204D120687D
:101D5000006800F0040003E02068006800F008005C
:101D600080B12068006820F004002168086094F8C1
:101D70005C0000F01F0108208840B060606D40F0FA
:101D80000100606594F85C0000F01F0101208840AC
:101D90003840E8B392492068884200E0B7E24BD06F
:101DA0008F4918312068884246D08D4930312068EB
:101DB000884241D08A494831206888423CD08849CD
:101DC00060312068884237D0854978312068884260
:101DD00032D083499031206888422DD08049A83183
:101DE0002068884228D07F492068884224D07D49D5
:101DF0001831206888421FD07A49303120688842E3
:101E00001AD0784948312068884215D0754900E0D9
:101E100026E06031206888420ED07249783120680F
:101E2000884209D06F4990312068884204D06D49BA
:101E3000A8312068884204D12068406900F0800001
:101E400002E020680068002050B194F85C0000F0C7
:101E50001F0101208840B060606D40F002006065A5
:101E600094F85C0000F01F01042088403840E8B37B
:101E70005B49206888424BD0594918312068884214
:101E800046D0574930312068884241D054494831C2
:101E9000206888423CD0524960312068884237D05F
:101EA0004F4978312068884232D04D4990312068BE
:101EB00088422DD04A49A8312068884228D0494913
:101EC0002068884224D047491831206888421FD0B2
:101ED00044493031206888421AD04249483120684C
:101EE000884215D03F496031206800E024E08842F4
:101EF0000ED03C4978312068884209D03949903168
:101F00002068884204D03749A8312068884204D12B
:101F10002068006800F0020002E0206800680020ED
:101F200050B194F85C0000F01F0104208840B060BC
:101F3000606D40F00400606594F85C0000F01F01E3
:101F4000102088403840E8B325492068884251D0A5
:101F500023491831206888424CD02149303120680B
:101F6000884247D01E4948312068884242D01C49E7
:101F70006031206888423DD0194978312068884214
:101F800038D0174990312068884233D01449A8319D
:101F9000206888422ED01349206888422AD01149EF
:101FA00018312068884225D00E4930312068884297
:101FB00020D00C494831206888421BD00949603143
:101FC000206800E04DE0884214D00649783120684E
:101FD00088420FD003499031206805E05C0000245E
:101FE0001000024010040240884203D0FE492068DD
:101FF000884204D12068006800F0080003E02068EF
:10200000006800F0040060B394F85C0000F01F0169
:1020100010208840B0602068006800F4802080B103
:102020002068006800F4002028B9206CC8B1204660
:10203000216C884715E0A06C98B12046A16C8847B8
:102040000FE02068006800F4807028B920680068FC
:1020500020F0080021680860206C10B12046216C37
:10206000884794F85C0000F01F0120208840384029
:1020700000287DD0DD492068884249D0DB491831ED
:102080002068884244D0D9493031206888423FD006
:10209000D6494831206888423AD0D4496031206816
:1020A000884235D0D14978312068884230D0CF4934
:1020B0009031206888422BD0CC49A83120688842D2
:1020C00026D0C949A8392068884221D0C64990390C
:1020D000206888421CD0C44978392068884217D0CB
:1020E000C14960392068884212D0BF494839206808
:1020F00088420DD0BC4930392068884208D0BA499E
:1021000018392068884203D0B7492068884204D132
:102110002068006800F0100003E02068006800F00C
:10212000020028B394F85C0000F01F0120208840D2
:10213000B06094F8350004282DD12068006820F0A4
:102140001600216808602068406920F0800021683E
:102150004861206C08B9A06C28B12068006820F0A4
:1021600008002168086094F85C0000F01F0100E09E
:102170003FE03F208840B060012084F8350000BF78
:10218000002084F8340000BF206D10B12046216D7E
:102190008847BDE8F88F2068006800F4802080B18F
:1021A0002068006800F4002028B9606C08B320465D
:1021B000616C88471DE0E06BD8B12046E16B884731
:1021C00017E02068006800F4807068B92068006833
:1021D00020F0100021680860012084F8350000BF5D
:1021E000002084F8340000BFE06B10B12046E16BA2
:1021F0008847606D00287AD0606D00F00100E8B378
:10220000042084F835007949206888424BD077490A
:1022100018312068884246D074493031206888429D
:1022200041D072494831206888423CD06F496031C2
:102230002068884237D06D4978312068884232D092
:102240006A499031206888422DD06849A8312068B9
:10225000884228D06449A8392068884223D062493E
:102260009039206888421ED05F49783920688842BA
:1022700019D05D4960392068884200E040E012D002
:1022800059494839206888420DD05749303920686B
:10229000884208D0544918392068884203D05249EE
:1022A0002068884206D12068006820F0010021687B
:1022B000086005E02068006820F0010021680860DF
:1022C00000BF0098401C0090504500D905E02068F0
:1022D000006800F001000028F3D100BF206800680A
:1022E00000F0010020B1032084F8350003E00DE088
:1022F000012084F8350000BF002084F8340000BFBE
:10230000E06C002802D02046E16C8847D9E13849CA
:102310002068884222D036491431206888421DD076
:10232000334928312068884218D031493C3120682F
:10233000884213D02E495031206888420ED02C4953
:1023400064312068884209D0294978312068884260
:1023500004D027498C312068884201D1012000E057
:1023600000200028D2D02068056894F85C0000F0B6
:102370001F010420884000EA0900D8B305F00400DA
:10238000C0B394F85C0000F01F0104208840C8F836
:10239000040005F4004080B105F4803030B9A06C31
:1023A0000028B3D02046A16C88478AE1206C002821
:1023B000ACD02046216C884783E105F02000E8BBC3
:1023C0000A492068884253D0084918312068884259
:1023D0004ED0064930312068884249D003494831FF
:1023E0002068884244D006E0B80402401000024051
:1023F000085402584FE0B44960312068884237D011
:10240000B14978312068884232D0AF499031206894
:1024100088422DD0AC49A8312068884228D0AB49E9
:102420002068884224D0A9491831206888421FD0EA
:10243000A6493031206888421AD000E025E0A3493F
:1024400048312068884213D0A04960312068884212
:102450000ED09E4978312068884209D09B4990313E
:102460002068884204D09949A8312068884206D162
:102470002068006820F008002168086005E02068F6
:10248000006820F0040021680860206C10B320462A
:10249000216C884715E194F85C0000F01F010220D0
:1024A000884000EA0900E8B305F00200D0B394F8D0
:1024B0005C0000F01F0102208840C8F8040005F409
:1024C000004070B105F4803028B9606C10B120462E
:1024D000616C8847F5E0E06BF0B32046E16B88471C
:1024E000EFE005F02000C0BB7749206888424ED05D
:1024F000754918312068884249D0734930312068C5
:10250000884244D070494831206888423FD06E49A3
:102510006031206888423AD06B497831206888421F
:1025200035D000E04EE068499031206888422ED0D6
:102530006549A8312068884229D0644920688842CA
:1025400025D0624918312068884220D05F49303157
:10255000206888421BD001E06EE02DE05B494831E5
:102560002068884213D059496031206888420ED0D3
:10257000564978312068884209D054499031206802
:10258000884204D05149A8312068884206D1206889
:10259000006820F014002168086005E020680068E9
:1025A00020F00A0021680860012084F8350000BF8F
:1025B000002084F8340000BFE06BE8B32046E16BF4
:1025C00088477EE094F85C0000F01F0108208840F6
:1025D00000EA090080B305F0080068B33A492068B2
:1025E00088424BD0384918312068884246D0364955
:1025F00030312068884241D03349483120688842D0
:102600003CD0314960312068884237D02E4978313A
:102610002068884232D02C499031206888422DD0E1
:102620002949A8312068884228D028492068884252
:1026300024D02649183100E043E0206888421DD0AC
:10264000224930312068884218D02049483120681A
:10265000884213D01D496031206888420ED01B4942
:1026600078312068884209D0184990312068884222
:1026700004D01649A8312068884206D12068006835
:1026800020F01C002168086005E02068006820F048
:102690000E002168086094F85C0000F01F01012022
:1026A0008840C8F804000120606584F8350000BF48
:1026B000002084F8340000BFE06C10B12046E16CCB
:1026C000884700BF65E5000010000240100402408A
:1026D0002DE9F041044601F0B9FB804614B9012010
:1026E000BDE8F081FE492068884249D0FC49183194
:1026F0002068884244D0FA493031206888423FD06F
:10270000F7494831206888423AD0F549603120685D
:10271000884235D0F24978312068884230D0F0497B
:102720009031206888422BD0ED49A831206888423A
:1027300026D0EC492068884222D0EA491831206826
:1027400088421DD0E74930312068884218D0E549D9
:1027500048312068884213D0E249603120688842BD
:102760000ED0E04978312068884209D0DD499031A7
:102770002068884204D0DB49A8312068884201D112
:10278000012000E00020002873D0606A00B100BF83
:10279000022084F8350000BF002084F8340000BF18
:1027A000CF492068884249D0CD49183120688842F5
:1027B00044D0CB493031206888423FD0C8494831A5
:1027C000206888423AD0C64960312068884235D0B6
:1027D000C34978312068884230D0C149903120689F
:1027E00088422BD0BE49A8312068884226D0BD49F6
:1027F0002068884222D0BB491831206888421DD009
:10280000B84930312068884218D0B649483120682C
:10281000884213D0B3496031206888420ED0B14954
:1028200078312068884209D0AE49903120688842CA
:1028300004D0AC49A8312068884206D120680068DD
:1028400020F001002168086005E02068006820F0A1
:102850000100216808600DE001F0F8FAA0EB080023
:10286000052807D920206065032084F83500012061
:1028700036E76AE02068006800F001000028EBD12C
:102880002068056898480540D4E902010843216999
:10289000084361690843A1690843E1690843216A63
:1028A00008430543606A042803D1D4E90B010843B7
:1028B00005438E4800686FF30F00B0F1005F1DD331
:1028C0006068292802D360682E2811D960683F28E3
:1028D00002D3606842280BD96068472802D3606839
:1028E000482805D960684F2804D36068522801D869
:1028F000012000E0002008B145F480152068056043
:102900002068456925F00705606A0543606A042868
:102910000DD1A06A0543E06A48B12046FDF786FF65
:1029200028B140206065012084F83500D8E6206891
:1029300045612046FDF756FE064694F85C0000F01F
:102940001F013F208840B0609EE0694920688842AE
:1029500022D067491431206888421DD0644928314B
:102960002068884218D062493C312068884213D0E0
:102970005F495031206888420ED05D49643120683B
:10298000884209D05A4978312068884204D0584991
:102990008C312068884201D1012000E00020E0B3A2
:1029A00053492068884222D0514914312068884216
:1029B0001DD04F4928312068884218D04C493C31FD
:1029C0002068884213D04A495031206888420ED08E
:1029D000474964312068884209D0454978312068E8
:1029E000884204D042498C312068884201D10120BC
:1029F00000E0002000B100BF022084F8350000BFD5
:102A0000002084F8340000BF20680568394805407C
:102A1000A068402802D1102106E02EE0A06880289E
:102A200001D1C10100E00021E06841EAD001206944
:102A300041EAD001606941EAD001A06941EAD001D0
:102A4000E06941EAD001206A41EA1010054320689C
:102A5000056027492068401A1421B0FBF1F080007E
:102A6000E0652046FDF7BEFD074694F85C0000F0E7
:102A70001F0101208840786006E040206065032047
:102A800084F8350001202BE61549206888427FD064
:102A900013491831206888427AD0114930312068B2
:102AA000884275D00E4948312068884270D00C4960
:102AB0006031206888426BD00949783120688842AB
:102AC00066D0074990312068884261D00449A83116
:102AD000206888425CD003492068884258D00BE0C7
:102AE00010000240100402403F8010FE0010005C05
:102AF000085402580F00FEFF3B49183120688842F5
:102B000046D0394930312068884241D03649483171
:102B1000206888423CD0344960312068884237D0F0
:102B2000314978312068884232D02F49903120686D
:102B300088422DD02C49A8312068884228D02B49C2
:102B40002068884224D029491431206888421FD047
:102B500026492831206888421AD024493C3120680F
:102B6000884215D0214950312068884210D01F4931
:102B70006431206888420BD01C4978312068884233
:102B800006D01A498C312068884200E000E001D16B
:102B9000012000E0002000B32046FDF799FDA06869
:102BA000802801D1002060602079216E0860D4E97E
:102BB00019104860606860B16068082809D820462C
:102BC000FDF7E8FD0020E16E0860D4E91C104860C4
:102BD00003E00020E0662067606700206065012058
:102BE00084F8350000207BE51004024008540258A8
:102BF0002DE9F04104460D4616461F464FF00008E9
:102C000014B90120BDE8F08100BF94F83400012818
:102C100001D10220F6E7012084F8340000BF94F8C7
:102C2000350001287ED1022084F83500002060653F
:102C3000E4492068884249D0E24918312068884236
:102C400044D0E0493031206888423FD0DD494831E6
:102C5000206888423AD0DB4960312068884235D00C
:102C6000D84978312068884230D0D64990312068E0
:102C700088422BD0D349A8312068884226D0D24937
:102C80002068884222D0D0491831206888421DD05F
:102C9000CD4930312068884218D0CB49483120686E
:102CA000884213D0C8496031206888420ED0C64996
:102CB00078312068884209D0C34990312068884221
:102CC00004D0C149A8312068884206D12068006834
:102CD00020F001002168086005E02068006820F00D
:102CE0000100216808603B46324629462046FDF730
:102CF000F5FDB449206888424BD0B24918312068AC
:102D0000884246D0AF4930312068884241D0AD4931
:102D10004831206888423CD0AA4960312068884206
:102D200037D000E042E1A74978312068884230D0AE
:102D3000A4499031206888422BD0A249A83120684C
:102D4000884226D0A0492068884222D09E49183166
:102D5000206888421DD09C4930312068884218D0B4
:102D6000994948312068884213D0974960312068DA
:102D700088420ED0944978312068884209D092491F
:102D800090312068884204D08F49A8312068884259
:102D900001D1012000E0002080B12068006820F00F
:102DA0001E0040F0160021680860206CB0B1206859
:102DB000006840F00800216808600FE020680068A3
:102DC00020F00E0040F00A0021680860206C28B155
:102DD0002068006840F00400216808607949206894
:102DE000884270D077491831206888426BD0754985
:102DF00030312068884266D0724948312068884264
:102E000061D070496031206888425CD06D4978316A
:102E10002068884257D06B4990312068884252D050
:102E20006849A831206888424DD0674920688842A7
:102E300049D0654918312068884244D06249303110
:102E4000206888423FD060494831206888423AD0A3
:102E50005D4960312068884235D05B49783120680F
:102E6000884230D058499031206888422BD056494A
:102E7000A8312068884226D054492068884222D050
:102E800052491431206888421DD0504928312068A9
:102E9000884218D04D493C312068884213D04B49B4
:102EA0005031206888420ED04849643120688842F9
:102EB00009D0464978312068884204D043498C3192
:102EC0002068884201D1012000E0002090B1206EEE
:102ED000006800F4803028B1206E006840F48070F3
:102EE000216E0860E06E28B1E06E006840F48070EA
:102EF000E16E086033492068884249D03149183171
:102F00002068884244D02F493031206888423FD021
:102F10002C494831206888423AD02A4960312068DB
:102F2000884235D0274978312068884230D02549F9
:102F30009031206888422BD02249A83120688842ED
:102F400026D021492068884222D01F4918312068A4
:102F500088421DD01C4930312068884218D01A4957
:102F600048312068884213D0174960312068884270
:102F70000ED0154978312068884209D01249903125
:102F80002068884204D01049A8312068884206D1C0
:102F90002068006840F001002168086010E02068A7
:102FA000006840F001002168086009E04FF400600B
:102FB000606500BF002084F8340000BF4FF00108B6
:102FC00040461FE610000240100402400854025818
:102FD00070B5044600F03AFF06462546681C10B15D
:102FE00004480078054400BF00F030FF801BA84271
:102FF000FAD370BD5800002430B5034693F89840CA
:10300000012C01D0022C3ED11868806D084030B9E7
:103010001868C06D40F001001D68E8650EE0186892
:10302000806D0840884206D11868C06D40F00200EB
:103030001D68E86502E003201D68E86501F4007082
:1030400030B11868D0F8E00010431D68C5F8E00002
:1030500001F4806030B11868D0F8E40010431D68B6
:10306000C5F8E40000BF1868406D0B4D0D402843C3
:103070001D6868650948006840EA9170074D28603E
:1030800000BF002030BDD3F89C0040F00200C3F820
:103090009C000120F6E70000FFFFCF3F14A800408E
:1030A0007047F0B5024692F89860012E01D0022ECA
:1030B00043D1C868072800D100BF086818BBC8689A
:1030C000072800D000BFC86807280BD1088A4FF036
:1030D000605747EA0040CF6940EA07208F6940EA1D
:1030E00007040AE0087A80070F7B40EAC7600F8A6E
:1030F00040EA07404F6940EA0704D76E486807EB8B
:1031000080031C6017E0C868072800D000BF0F7B51
:10311000086940EA4774C868072801D18D6903E04F
:103120000F7A486940EA8775176F486807EBC00354
:103130001C601B1D1D600020F0BDD2F89C0040F0FB
:103140000200C2F89C000120F6E770B50446049D19
:1031500094F8980001280AD1080140EA820040EA68
:10316000430028432668C6F88000002070BDD4F8CC
:103170009C0040F00400C4F89C000120F6E7704772
:10318000704700002DE9F04304460D469C4600239D
:1031900094F89880B8F1020F74D1402D38D120688E
:1031A000D0F8A00000F4FE0040B9D4F89C0040F034
:1031B0002000C4F89C000120BDE8F0832068D0F80E
:1031C000A40000F07F0038B9D4F89C0040F480706F
:1031D000C4F89C000120EFE72068D0F8A400C0F3F9
:1031E000006040B12068D0F8A0004FF00049B9EB72
:1031F000D07F00D101232068D0F8A400C0F30520BF
:103200000344606C5843D4F8749009EB80014BE0A0
:10321000412D38D12068D0F8B00000F4FE0038B954
:10322000D4F89C0040F02000C4F89C000120C3E7C3
:103230002068D0F8B40000F07F0038B9D4F89C00C2
:1032400040F48070C4F89C000120B5E72068D0F8F5
:10325000B400C0F3006040B12068D0F8B0004FF077
:103260000049B9EBD07F00D101232068D0F8B40029
:10327000C0F305200344E06C5843D4F8789009EB80
:10328000800111E06EE0206DA84207D8D4F89C00C0
:1032900040F02000C4F89C0001208DE7606D684379
:1032A000D4F87C9009EB8001086800F08040506001
:1032B000506820B90868C0F38A40106003E00868CD
:1032C00020F060401060086800F0005090600868CE
:1032D00000F000401061091D088880B2D0610868C4
:1032E00000F47020D060086800F480105061086815
:1032F00000F4001090610868C0F30660106208686E
:10330000C00F5062091D0F46002603E0B85D0CF89F
:103310000600761CDFF85C90D06809EB104000785E
:10332000B042F3D8402D03D12068C0F8A83017E090
:10333000412D03D12068C0F8B83011E0202D06D20D
:103340000120A840D4F80090C9F8980008E005F0E2
:103350001F09012000FA09F0D4F80090C9F89C0078
:10336000002029E7D4F89C0040F00800C4F89C0035
:10337000012021E79CA90008704700002DE9F04FCB
:103380008DB00446EF4800688707EE48001D0068CE
:1033900007EA80772068006D00F470482068406D6F
:1033A00000EA08082068006D00F00F092068406DF1
:1033B00000EA09092068006D00F0F00A2068406DFD
:1033C00000EA0A0A2068006D00F0715B2068406D19
:1033D00000EA0B0B2068006D00F060700C90206814
:1033E000406D0C9908400C902068456D2068066D72
:1033F000C5F3002070B1C6F3002058B100BF4FF4F0
:103400008070216808650020CE49086000BF204612
:10341000FFF7B2FFC5F38020C8B1C6F38020B0B17A
:103420002068D0F8DC000A902068D0F8E4000A99FF
:1034300008400A9000BF4FF48060216808650020B2
:10344000C049086000BF20460A9900F0F1FB67B14F
:1034500000BFBD48384021680865B80FB949086009
:1034600000BF39462046FFF71BFEB8F1000F0ED013
:1034700000BFB54808EA0000216808654FEA987067
:10348000B049086000BF4146204600F0D3FBB9F1C7
:10349000000F0ED000BFAC4809EA000021680865A3
:1034A0004FEA9970A749086000BF4946204600F0DE
:1034B00074FBBAF1000F0ED000BFA3480AEA000067
:1034C000216808654FEA9A709E49086000BF51461E
:1034D000204600F076FBC5F3C02070B1C6F3C020D3
:1034E00058B100BF4FF4006021680865002095497D
:1034F000086000BF204600F09EFBC5F34020C8B125
:10350000C6F34020B0B12068D0F8D8000B902068F6
:10351000D0F8E0000B9908400B9000BF4FF400700A
:103520002168086500208749086000BF20460B9984
:1035300000F07FFBC5F3C04070B1C6F3C04058B186
:1035400000BF4FF400202168086500207D49086015
:1035500000BF204600F020FBC5F3004070B1C6F369
:10356000004058B100BF4FF480302168086500204A
:103570007449086000BF204600F059FBC5F3804045
:1035800070B1C6F3804058B100BF4FF4802021686D
:10359000086500206B49086000BF204600F046FB2C
:1035A000C5F3404088B1C6F3404070B100BF4FF44E
:1035B00000302168086500206249086000BFD4F827
:1035C0009C0040F08000C4F89C000C9870B100BFD3
:1035D0005D490C980840216808650C98800F59498E
:1035E000086000BF20460C99FFF7CAFDBBF1000F31
:1035F00010D000BF54480BEA0000216808654FEA6C
:103600009B705049086000BFD4F89C0040EA0B0052
:10361000C4F89C004D49206888427DD1606880686C
:1036200000F00300002877D06068006A00F00F0007
:1036300009906068406A0999084009906068006ACA
:1036400000F0300008906068406A089908400890CF
:103650006068006A00F4C07007906068406A07996B
:10366000084007906068006A00F4FC4006906068BB
:10367000406A0699084006906068006A00F4F020ED
:1036800005906068406A0599084005906068406A46
:1036900002906068006A0190099830B109986168E9
:1036A00008622046099900F0BEFA089830B10898DF
:1036B000616808622046089900F0B7FA0298C0F3E2
:1036C0008010A0B10198C0F3801080B16068C06B19
:1036D000000C04906068C06B00F03F000390402035
:1036E000616808622046DDE9032100F09DFA079831
:1036F00030B10798616808622046079900F092FA95
:10370000069840B1069861680862D4F89C00069952
:103710000843C4F89C0000E00AE0059840B1059811
:1037200061680862D4F89C0005990843C4F89C00BD
:10373000D4F89C0010B12046FFF721FD0DB0BDE884
:10374000F08F000010A80040FFFFCF3F00A0004016
:1037500070B594B004464C22B34901A8FCF783FE2F
:1037600014B9012014B070BDB0492068884203D15B
:10377000206800F580706060A068B0F5407F00D1DF
:1037800000BF206C00B100BFA06C00B100BF206D75
:1037900000B100BF206E00B100BFD4E9171008448B
:1037A00000B100BF94F8980028B9002084F899006F
:1037B000204600F03DF92068806920F01000216863
:1037C000886100F043FB05460EE000F03FFB401B24
:1037D0000A2809D99834606840F00100606003202D
:1037E00004F898090120BDE72068806900F008000E
:1037F0000828EAD02068806940F0010021688861CB
:1038000000F024FB05460EE000F020FB401B0A28D8
:1038100009D99834606840F001006060032004F822
:10382000980901209EE72068806900F001000028C7
:10383000EAD02068806940F0020021688861207C1D
:10384000012806D12068806920F040002168886145
:1038500005E02068806940F0400021688861607C54
:10386000012806D12068806940F480402168886181
:1038700005E02068806920F4804021688861A07C90
:10388000012806D12068806920F480502168886171
:1038900005E02068806940F48050216888612068D4
:1038A000806920F44070A16808432168886120681D
:1038B000806920F0A400216888612068006920F0F8
:1038C000100021680861E068012806D1206880693D
:1038D00040F004002168886120E0E068F0B1E06811
:1038E000022815D02068806940F080002168886136
:1038F0002068006940F0100021680861E068032832
:103900000CD12068806940F020002168886105E0C2
:103910002068806940F0200021688861207E401E78
:103920004106E069401E41EA0020216A491E084321
:10393000A18A491E40EA01402168C861A068B0F52B
:10394000407F0FD1A06A401EE16A491E40EA012172
:10395000206B401E41EA0011A08C401E41EA00404D
:103960002168C860206E38B12068D0F8C000616E50
:1039700008432168C1F8C000D4E91710084460B1B9
:103980002068D0F8C80020F0070001AAA16E52F804
:10399000211008432168C1F8C800206C60B120687C
:1039A000D0F8BC0020F0070001AA616C52F8211089
:1039B00008432168C1F8BC00A06C68B12068D0F849
:1039C000BC0020F0700101AAE06C52F8200041EA2E
:1039D00000102168C1F8BC00206D68B12068D0F8E3
:1039E000BC0020F4E06101AA606D52F8200041EAB9
:1039F00000202168C1F8BC000C492068884205D12C
:103A00006068806820F0030061688860002044F8E6
:103A1000940FA06001202071943C2046FDF716F918
:103A2000064630469EE60000ACA9000800A0004013
:103A300010B5B6B00446142131A8FCF746FDBC21F0
:103A400002A8FCF742FD4E492068884249D14FF454
:103A50000040029040031D9002A800F073FD08B1E1
:103A6000FDF777F847480068401C4649086008465B
:103A7000006801280DD100BF4348006840F4807001
:103A8000414908600846006800F48070019000BF5A
:103A900000BF00BF3C480C38006840F001003A49C4
:103AA0000C3908600846006800F00100019000BF72
:103AB00000BF4FF4C050319002203290012033906B
:103AC000032034900920359031A9304800F0B4F833
:103AD00000220521132000F071FA132000F05AFA99
:103AE0004CE02B492068884248D14FF400400290B6
:103AF00040031D9002A800F025FD08B1FDF729F84C
:103B000020480068401C1F490860084600680128DA
:103B10000DD100BF1C48006840F480701A4908604D
:103B20000846006800F48070019000BF00BF00BF2D
:103B300015480C38006840F0020013490C39086041
:103B40000846006800F00200019000BF00BF4FF47B
:103B50004050319002203290012033900320349065
:103B60000920359031A90B4800F066F80022114673
:103B7000142000F023FA142000F00CFA36B010BD27
:103B800000A0004048000024EC4402580000025805
:103B900000A4004000040258704730B58DB00446C0
:103BA0000D4600200B900C900BAB01AA4021204643
:103BB000FFF7E8FA0BAA20460199FDF757F90DB077
:103BC00030BD30B59BB004460D4640210BA8FCF734
:103BD0007CFC0BAB01AA41212046FFF7D3FA0298E7
:103BE00020B90BAA20460199FDF740F91BB030BD62
:103BF000014691F8980001280CD1022081F8980024
:103C00000868806920F001000A6890610020C1F80E
:103C10009C007047D1F89C0040F00400C1F89C0063
:103C20000120F6E77047704770477047704770474C
:103C30007047704770477047F8B502460B46002141
:103C40006F4DD7E001278F401E6806EA0704002C5D
:103C500072D01E7906F00306012E04D01E7906F0FC
:103C60000306022E13D190684F000326BE40B043D6
:103C70004F00DE68BE4030439060506801268E40A1
:103C8000B0431E79C6F300168E40304350601E7953
:103C900006F00306032E09D0D0684F000326BE406D
:103CA000B0434F009E68BE403043D0601E7906F09E
:103CB0000306022E13D1CF0802F1200656F8270082
:103CC0004E07F70E0F26BE40B0434F07FF0E1E698A
:103CD000BE403043CF0802F1200646F827001068A6
:103CE0004F000326BE40B0431E7906F003064F0086
:103CF000BE40304310605E6806F44036002E78D037
:103D000000BF404E366846F002063E4F3E603E46DB
:103D1000366806F00206009600BF00BF3A4E8F08D4
:103D200056F827008E07370F0F26BE40B043374E98
:103D3000B24202D100262EE05BE0354EB24201D104
:103D4000012628E0334EB24201D1022623E0324E52
:103D5000B24201D103261EE0304EB24201D1042608
:103D600019E02F4EB24201D1052614E02D4EB24289
:103D700001D106260FE02C4EB24201D107260AE0FF
:103D80002A4EB24201D1082605E0294EB24201D1A5
:103D9000092600E00A268F073F0FBE4030431A4E27
:103DA0008F0846F827004FF0B0463068A0435E68A1
:103DB00006F4801606B120434FF0B04630607068BC
:103DC000A0435E6806F4001606B120434FF0B046EB
:103DD00070606868A0435E6806F4003606B1204350
:103DE00068602868A0435E6806F4803606B1204308
:103DF0002860491C1E68CE40002E7FF423AFF8BD1A
:103E000080000058F444025808040058000002588A
:103E10000004025800080258000C02580010025812
:103E20000014025800180258001C025800200258C2
:103E3000002402580AB1816101E00B0483617047DC
:103E400001480068000C70470010005C01480068E1
:103E500070470000500000240348006803490978B7
:103E600008440149086070475000002458000024AD
:103E700010B5032000F0E0F801F026FB10490968B6
:103E8000C1F303210F4A515C01F01F0120FA01F434
:103E90000B48006800F00F001146085C00F01F009E
:103EA00024FA00F008490860084804600F2000F078
:103EB0000FF808B1012010BD00F05AF80020FAE711
:103EC0001844025820AA0008600000245C00002466
:103ED000F0B58BB00446102C0AD2002221462D20CA
:103EE00000F06CF82D2000F055F81C48046002E04A
:103EF00001200BB0F0BD00BF1948006840F480708D
:103F0000174908600846006800F48070019000BFFF
:103F100000BF02A903A801F057FA089E1EB901F0DC
:103F2000AFFA054602E001F0ABFA45000D48B5FBDB
:103F3000F0F0471E0C480D49086040F2E7310B488D
:103F4000C160476000210161816002F0B3F918B9D6
:103F5000064802F07BFACCE70120CAE754000024AF
:103F6000E844025840420F0000200040545E012403
:103F700008B500BF0648006840F002000449086028
:103F80000846006800F00200009000BF00BF08BDB6
:103F9000F44402580146084600280DDB00BF00BF6C
:103FA00000F01F0301229A4043099B0003F1E02324
:103FB000C3F8002100BF00BF00BF70472DE9F05FCC
:103FC00080460D46164606F073F8074639462A46DF
:103FD000334601F00700C0F1070ABAF1040F02D915
:103FE0004FF0040A01E0C0F1070AD14600F1040ACB
:103FF000BAF1070F02D24FF0000A01E0A0F1030A64
:10400000D4464FF0010A0AFA09FAAAF1010A0AEAAB
:10401000020A0AFA0CFA4FF0010B0BFA0CFBABF197
:10402000010B0BEA030B4AEA0B042146404606F05B
:1040300047F8BDE8F09F000000BF00F00702064B04
:1040400019684FF6FF031940044B0B4343EA022162
:10405000014B196000BF70470CED00E00000FA054D
:1040600070B5044615480068C0F3800048B913488D
:10407000006800F00700A04201D0012070BD0020C0
:10408000FCE70E48006820F0070020430B49086059
:10409000FFF7DCFE054607E0FFF7D8FE401BB0F552
:1040A0007A7F01D90120E9E7044808380068C0F3A5
:1040B00040300028F0D00020E0E700000C48025813
:1040C00010B501F0B7F905490968C1F30211044AB6
:1040D000515C01F01F01C84010BD0000204402588F
:1040E00020AA000870B50146844D2D6805F0030331
:1040F000824D2D68C5F30530804D2D1D2D68C5F30B
:1041000000147E4D14352D68C5F3CC0515FB04F560
:1041100001EE105AB8EE411AF0EE410A00286FD0B5
:1041200023B1012B4ED0022B6BD16BE0734D283D98
:104130002D68C5F340153DB3704D283D2D68C5F37E
:10414000C1066F4D25FA06F201EE102AF8EE411A6B
:1041500001EE100AB8EE411A81EE812A9FED691A2C
:10416000C0EE811A654D10352D68C5F3080501EEC6
:10417000105AB8EE411A31EE811AF7EE001A31EEFC
:10418000211A22EE010A1CE001EE100AB8EE411AD3
:10419000DFED5D1A81EE812A9FED5A1AC0EE811A79
:1041A000564D10352D68C5F3080501EE105AB8EECE
:1041B000411A31EE811AF7EE001A31EE211A22EE81
:1041C000010A5BE001EE100AB8EE411ADFED4F1A6A
:1041D00081EE812A9FED4B1AC0EE811A474D1035B2
:1041E0002D68C5F3080501EE105AB8EE411A31EEFC
:1041F000811AF7EE001A31EE211A22EE010A3DE093
:1042000077E01DE001EE100AB8EE411A9FED402A5A
:10421000C2EE011A9FED3B1A80EE812A374D103510
:104220002D68C5F3080501EE105AB8EE411A32EEBA
:10423000011AB7EE002A31EE021A21EE810A1DE0C2
:1042400001EE100AB8EE411ADFED301A81EE812A34
:104250009FED2C1AC0EE811A284D10352D68C5F33C
:10426000080501EE105AB8EE411A31EE811AF7EE48
:10427000001A31EE211A22EE010A00BF00BF1F4DC5
:1042800010352D68C5F3462501EE105AB8EE411AD7
:10429000F7EE001A31EE211AC0EE011ABCEEE11A57
:1042A00081ED001A154D10352D68C5F3064501EE58
:1042B000105AB8EE411AF7EE001A31EE211AC0EE8C
:1042C000011ABCEEE11A81ED011A0C4D10352D6872
:1042D000C5F3066501EE105AB8EE411AF7EE001A62
:1042E00031EE211AC0EE011ABCEEE11A81ED021A7C
:1042F00003E000250D604D608D6070BD28440258BC
:104300000090D003000000460024744C0024744A3E
:1043100020BCBE4B70B50146844D2D6805F00303EB
:10432000824D2D68C5F30550804D2D1D2D68C5F3B8
:1043300000247E4D1C352D68C5F3CC0515FB04F516
:1043400001EE105AB8EE411AF0EE410A00286FD083
:1043500023B1012B4ED0022B6BD16BE0734D283D66
:104360002D68C5F340153DB3704D283D2D68C5F34C
:10437000C1066F4D25FA06F201EE102AF8EE411A39
:1043800001EE100AB8EE411A81EE812A9FED691AFA
:10439000C0EE811A654D18352D68C5F3080501EE8C
:1043A000105AB8EE411A31EE811AF7EE001A31EECA
:1043B000211A22EE010A1CE001EE100AB8EE411AA1
:1043C000DFED5D1A81EE812A9FED5A1AC0EE811A47
:1043D000564D18352D68C5F3080501EE105AB8EE94
:1043E000411A31EE811AF7EE001A31EE211A22EE4F
:1043F000010A5BE001EE100AB8EE411ADFED4F1A38
:1044000081EE812A9FED4B1AC0EE811A474D183577
:104410002D68C5F3080501EE105AB8EE411A31EEC9
:10442000811AF7EE001A31EE211A22EE010A3DE060
:1044300077E01DE001EE100AB8EE411A9FED402A28
:10444000C2EE011A9FED3B1A80EE812A374D1835D6
:104450002D68C5F3080501EE105AB8EE411A32EE88
:10446000011AB7EE002A31EE021A21EE810A1DE090
:1044700001EE100AB8EE411ADFED301A81EE812A02
:104480009FED2C1AC0EE811A284D18352D68C5F302
:10449000080501EE105AB8EE411A31EE811AF7EE16
:1044A000001A31EE211A22EE010A00BF00BF1F4D93
:1044B00018352D68C5F3462501EE105AB8EE411A9D
:1044C000F7EE001A31EE211AC0EE011ABCEEE11A25
:1044D00081ED001A154D18352D68C5F3064501EE1E
:1044E000105AB8EE411AF7EE001A31EE211AC0EE5A
:1044F000011ABCEEE11A81ED011A0C4D18352D6838
:10450000C5F3066501EE105AB8EE411AF7EE001A2F
:1045100031EE211AC0EE011ABCEEE11A81ED021A49
:1045200003E000250D604D608D6070BD2844025889
:104530000090D003000000460024744C0024744A0C
:1045400020BCBE4B2DE9F04104460025A84620685A
:1045500000F00060B0F1006F30D1606E48B1B0F58E
:10456000801F0DD0B0F5001F10D0B0F5401F15D141
:1045700013E0F948006840F40030F74908600FE0A4
:104580000221201D03F0F6FC054609E0022104F19A
:10459000240003F0A1FD054602E001E0012500BF73
:1045A00000BF55B9EC482430006820F44010616E1B
:1045B0000843E9492431086000E0A846208800F457
:1045C0008070B0F5807F2DD1606D05281AD2DFE8AC
:1045D00000F0030A10171800DF48006840F40030AC
:1045E000DD49086010E00021201D03F0C3FC0546F2
:1045F0000AE0002104F1240003F06EFD054603E00B
:1046000002E001E0012500BF00BF55B9D2482430C7
:10461000006820F00700616D0843CF49243108602D
:1046200000E0A846208800F40070B0F5007F33D188
:10463000A06D802817D003DC40B140281CD10CE0CD
:10464000C02817D0B0F5807F16D114E0C2480068AA
:1046500040F40030C049086010E00021201D03F044
:1046600089FC05460AE0002104F1240003F034FD32
:10467000054603E002E001E0012500BF00BF55B997
:10468000B5482430006820F4E070A16D0843B249B9
:104690002431086000E0A846208800F48060B0F56E
:1046A000806F38D1D4F8A400B0F5800F19D004DCA5
:1046B00050B1B0F5001F1DD10DE0B0F5C00F17D0FF
:1046C000B0F5000F16D114E0A348006840F40030A4
:1046D000A149086010E00021201D03F04BFC0546B5
:1046E0000AE0002104F1240003F0F6FC054603E093
:1046F00002E001E0012500BF00BF5DB996482C3003
:10470000006820F46000D4F8A410084392492C31CA
:10471000086000E0A846208800F40060B0F5006F53
:1047200038D1D4F8A800B0F1007F19D004DC50B122
:10473000B0F1807F1DD10DE0B0F1407F17D0B0F116
:10474000806F16D114E08448006840F4003082493C
:10475000086010E00021201D03F00CFC05460AE073
:10476000002104F1240003F0B7FC054603E002E059
:1047700001E0012500BF00BF5DB977482C3000681B
:1047800020F0E060D4F8A810084373492C31086089
:1047900000E0A846206800F00070B0F1007F27D14B
:1047A000A06CA0B1102804D0202809D030280FD147
:1047B0000CE06948006840F400306749086009E08F
:1047C0000221201D03F0D6FB054603E002E001E0D4
:1047D000012500BF00BF55B95F482030006820F0B8
:1047E0003000A16C08435C492031086000E0A84615
:1047F000208800F48050B0F5805F36D1E06DB0F5D0
:10480000005F19D004DC50B1B0F5805F1DD10DE020
:10481000B0F5405F17D0B0F5804F16D114E04E4888
:10482000006840F400304C49086010E00021201D71
:1048300003F0A0FB05460AE0002104F1240003F088
:104840004BFC054603E002E001E0012500BF00BF8C
:1048500055B941482430006820F4E040E16D084338
:104860003D492431086000E0A846208800F400504B
:10487000B0F5005F34D1206EB0F5403F1DD007DCAD
:1048800068B1B0F5803F0BD0B0F5003F18D10DE016
:10489000B0F5802F12D0B0F5A02F11D10FE011E0AC
:1048A0000121201D03F066FB05460BE0012104F108
:1048B000240003F011FC054604E003E002E001E0FF
:1048C000012500BF00BF55B923482430006820F4FB
:1048D000E020216E084320492431086000E0A8460A
:1048E000208800F48040B0F5804F38D1D4F8AC0077
:1048F000B0F1405F1DD007DC68B1B0F1805F0BD034
:10490000B0F1005F18D10DE0B0F1804F12D0B0F1DE
:10491000A04F11D10FE011E00121201D03F02AFB6F
:1049200005460BE0012104F1240003F0D5FB054608
:1049300004E003E002E001E0012500BF00BF6DB923
:1049400005482C30006820F0E040D4F8AC10084353
:1049500001492C31086002E02C440258A846208806
:1049600000F40040B0F5004F26D1E06E98B1B0F1F0
:10497000805F03D0B0F1005F0ED106E0F948006817
:1049800040F40030F749086008E00121201D03F0E1
:10499000F1FA054602E001E0012500BF00BF55B96C
:1049A000F0482430006820F04050E16E0843ED49A3
:1049B0002431086000E0A846206800F08070B0F163
:1049C000807F27D1606CA0B1012804D0022809D0D3
:1049D00003280FD10CE0E348006840F40030E149BF
:1049E000086009E00221201D03F0C4FA054603E037
:1049F00002E001E0012500BF00BF55B9D9482030D1
:104A0000006820F00300616C0843D649203108603B
:104A100000E0A846206800F48000B0F5800F7DD14A
:104A2000D148006840F48070CF490860FFF70EFA63
:104A3000064606E0FFF70AFA801B642801D9032521
:104A400005E0C948006800F480700028F2D000BF7B
:104A500085BBC4484430006800F44070B4F8B0101E
:104A600001F44071884213D0BE484430006820F4FD
:104A70004077BC484430006840F48030B949443144
:104A800008600846006820F4803008600846076027
:104A9000D4F8B000B0F5807F15D1FFF7D7F90646FE
:104AA00009E0FFF7D3F9801B41F28831884202D92F
:104AB000032507E038E0AB4844300068C0F340000D
:104AC0000028EED000BF55BB00BFB4F8B00000F422
:104AD0004070B0F5407F0ED1A2481C38006820F429
:104AE0007C51A24AD4F8B000104041EA10109D4910
:104AF0001C39086007E09B481C38006820F47C5093
:104B000098491C390860974844300068B4F8B010E0
:104B1000C1F30B0108439349443101E005E001E092
:104B2000086002E0A84600E0A846207800F00100F6
:104B300068B3A06F182819D005DC48B1082808D040
:104B4000102816D10BE0202811D0282811D10FE011
:104B500011E00121201D03F00DFA05460BE00121B3
:104B600004F1240003F0B8FA054604E003E002E093
:104B700001E0012500BF00BF55B97A482830006820
:104B800020F03800A16F084376492831086000E022
:104B9000A846207800F00200022828D1606F06287D
:104BA00015D2DFE800F003040A11121311E001210D
:104BB000201D03F0DFF905460BE0012104F124007C
:104BC00003F08AFA054604E003E002E001E0012573
:104BD00000BF00BF55B963482830006820F00700C7
:104BE000616F08435F492831086000E0A8462078DB
:104BF00000F0040004282AD1D4F89000062815D229
:104C0000DFE800F003040A11121311E00121201D56
:104C100003F0B0F905460BE0012104F1240003F094
:104C20005BFA054604E003E002E001E0012500BF75
:104C300000BF5DB94B482C30006820F00700D4F865
:104C40009010084347492C31086000E0A8462078BE
:104C500000F02000202836D1D4F88C00B0F1405F5D
:104C60001DD007DC68B1B0F1805F0BD0B0F1005F00
:104C700018D10DE0B0F1804F12D0B0F1A04F11D19A
:104C80000FE011E00021201D03F074F905460BE050
:104C9000022104F1240003F01FFA054604E003E0BA
:104CA00002E001E0012500BF00BF5DB92D482830BA
:104CB000006820F0E040D4F88C10084329492831DE
:104CC000086000E0A846207800F04000402836D177
:104CD000D4F89800B0F5406F1DD007DC68B1B0F58E
:104CE000806F0BD0B0F5006F18D10DE0B0F5805F8C
:104CF00012D0B0F5A05F11D10FE011E00021201D0E
:104D000003F038F905460BE0022104F1240003F01A
:104D1000E3F9054604E003E002E001E0012500BFFD
:104D200000BF5DB90F482C30006820F4E050D4F883
:104D3000981008430B492C31086000E0A846207801
:104D400000F0800080283AD1D4F89C00B0F5C04F24
:104D500023D00DDC98B1B0F5005F11D0B0F5804FD5
:104D60001ED113E02C44025800480258FFFCFF0FEC
:104D7000B0F5004F12D0B0F5204F11D10FE011E087
:104D80000021201D03F0F6F805460BE0022104F196
:104D9000240003F0A1F9054604E003E002E001E08D
:104DA000012500BF00BF4DB9BE48006820F4604037
:104DB000D4F89C100843BB49086000E0A84620785E
:104DC00000F00800082817D1D4F88000B0F5805F03
:104DD00007D1022104F1240003F07EF908B14FF05D
:104DE0000108B048001F006820F44050D4F880103B
:104DF0000843AC49091F0860207800F01000102813
:104E000015D1D4F89400B0F5807F07D1022104F1C8
:104E1000240003F061F908B14FF00108A1480068CF
:104E200020F44070D4F8941008439E49086020682C
:104E300000F40020B0F5002F26D1D4F8A00030B146
:104E4000B0F5803F09D0B0F5003F0ED10CE0002155
:104E5000201D03F08FF8054609E0022104F124002B
:104E600003F03AF9054602E001E0012500BF00BF6A
:104E70004DB98C48006820F44030D4F8A0100843A5
:104E80008849086000E0A846206800F48020B0F55A
:104E9000802F2DD1D4F88400B0F5801F06D0B0F556
:104EA000001F0CD0B0F5401F11D10FE07D482C3809
:104EB000006840F400307B492C39086009E001218A
:104EC00004F1240003F008F9054602E001E00125A1
:104ED00000BF00BF5DB97348001F006820F4401098
:104EE000D4F8841008436F49091F086000E0A84601
:104EF000206800F48030B0F5803F24D1E06C18B118
:104F0000B0F5803F0FD108E066482C38006840F4C7
:104F1000003064492C39086007E00221201D03F0AD
:104F200029F8054601E0012500BF00BF55B95D48DD
:104F30000C38006820F48030E16C084359490C3982
:104F4000086000E0A846206800F00050B0F1005F63
:104F500007D1022104F1240003F0BEF808B14FF09C
:104F60000108206800F40030B0F5003F27D1E06F61
:104F7000A0B1B0F5807F06D0B0F5007F0CD0B0F5C1
:104F8000407F0CD109E047482C38006840F40030DD
:104F900044492C39086004E003E002E001E0012507
:104FA00000BF00BF55B93F48001F006820F44070A3
:104FB000E16F08433B49091F086000E0A8462068EC
:104FC00000F48010B0F5801F09D136480838006819
:104FD00020F00040216F08433249083908602068FA
:104FE00000F08050B0F1805F0AD12E484838006848
:104FF00020F48040D4F8B41008432A4948390860A6
:10500000206800F40010B0F5001F09D125480838C9
:10501000006820F08070A16E0843224908390860BA
:10502000206800F08040B0F1804F11D100BF1D48D2
:105030004838006820F400401A494839086008469A
:105040000068D4F8B810084316494839086000BF12
:10505000206800F00040B0F1004F09D111480C3831
:10506000006820F04050216D08430E490C3908605B
:10507000206800F40000B0F5000F0AD10948001FB5
:10508000006820F44000D4F8881008430549091F3F
:105090000860B8F1000F02D10020BDE8F0810120C6
:1050A000FBE70000584402582DE9F04104460D4644
:1050B00014B90120BDE8F081BD48006800F00F0080
:1050C000A8420ED2BA48006820F00F002843B84921
:1050D00008600846006800F00F00A84201D00120D7
:1050E000E8E7207800F0040004280ED1B1492069D7
:1050F000096801F07001884207D9AE48006820F0C5
:10510000700021690843AB490860207800F008006E
:10511000082811D1A749091D6069096801F07001CB
:10512000884209D9A348001D006820F07000616919
:105130000843A049091D0860207800F010001028DD
:1051400011D19C49091DA069096801F4E0618842F8
:1051500009D99848001D006820F4E060A16908435F
:105160009449091D0860207800F02000202811D102
:1051700090490831E069096801F07001884209D955
:105180008C480830006820F07000E16908438949C4
:1051900008310860207800F0020002280ED185490D
:1051A000E068096801F00F01884207D9814800686A
:1051B00020F00F00E16808437E490860207800F085
:1051C0000100002850D07B48006820F47060A1687E
:1051D0000843784908606068022807D17548183884
:1051E0000068C0F34040F8B9012063E76068032815
:1051F00007D1704818380068C0F34060A0B901209A
:1052000058E76068012807D16A4818380068C0F379
:10521000002048B901204DE7664818380068C0F3FF
:10522000800008B9012045E762480838006820F08E
:105230000700616808435F4908390860FEF706FE09
:10524000064608E0FEF702FE801B41F288318842E4
:1052500001D903202EE757480838006800F03800CD
:105260006168B0EBC10FEDD1207800F00200022898
:105270000ED15049E068096801F00F01884207D259
:105280004C48006820F00F00E16808434949086075
:105290004748006800F00F00A8420ED94448006853
:1052A00020F00F002843424908600846006800F0DB
:1052B0000F00A84201D00120FCE6207800F0040095
:1052C00004280ED13B492069096801F07001884229
:1052D00007D23848006820F070002169084335493A
:1052E0000860207800F00800082811D13149091D14
:1052F0006069096801F07001884209D22D48001DDB
:10530000006820F07000616908432A49091D08609F
:10531000207800F01000102811D12649091DA0693D
:10532000096801F4E061884209D22248001D006842
:1053300020F4E060A16908431E49091D0860207837
:1053400000F02000202811D11A490831E0690968CD
:1053500001F07001884209D216480830006820F038
:105360007000E169084313490831086000F0ACF8A7
:1053700010490968C1F303210F4A515C01F01F0174
:1053800020FA01F70B48006800F00F001146085C96
:1053900000F01F0027FA00F008490860084807607D
:1053A00008480068FEF794FD8046404682E600000B
:1053B000002000521844025820AA0008600000246F
:1053C0005C000024540000243F220260174A126847
:1053D00002F007024260154A0832126802F4706255
:1053E0008260124A0832126802F00F02C2600F4A4D
:1053F0000832126802F0700202610C4A0C32126824
:1054000002F070024261094A0C32126802F4E06252
:105410008261064A1032126802F07002C261044AC8
:10542000126802F00F020A60704700001044025830
:105430000020005210B500F047F80D490968C1F38B
:1054400003210C4A515C01F01F0120FA01F40848C5
:10545000006800F00F001146085C00F01F0024FAFD
:1054600000F005490860054804600846006810BD62
:105470001844025820AA0008600000245C000024A0
:1054800000B5FFF7D7FF05490968C1F30211044AC7
:10549000515C01F01F01C84000BD00001C440258CF
:1054A00020AA000800B5FFF7C5FF05490968C1F348
:1054B0000221044A515C01F01F01C84000BD0000F8
:1054C0001C44025820AA0008F0B5824E366806F047
:1054D000380636B1082E15D0102E15D0182E7DD1D5
:1054E00014E07C4E103E3668C6F3401646B1794E45
:1054F000103E3668C6F3C107774E26FA07F000E083
:105500007548E5E07548E3E07548E1E0714E18360E
:10551000366806F003046F4E18363668C6F3051178
:105520006C4E1C36366806F001056A4E2436366825
:10553000C6F3CC0616FB05F601EE106AB8EE410A7A
:10554000002971D024B1012C50D0022C6DD16DE016
:10555000604E103E3668C6F340163EB35D4E103EB8
:105560003668C6F3C1075C4E26FA07F301EE103A1F
:10557000F8EE411A01EE101AB8EE411A81EE812AB6
:105580009FED581AC0EE011A524E20363668C6F307
:10559000080601EE106AB8EE411A31EE811AF7EEF4
:1055A000001A31EE211A62EE010A1EE001EE101A15
:1055B000B8EE411ADFED4C1A81EE812A9FED491AAF
:1055C000C0EE011A434E20363668C6F3080601EED7
:1055D000106AB8EE411A31EE811A00E076E0F7EE7B
:1055E000001A31EE211A62EE010A5BE001EE101A98
:1055F000B8EE411A9FED3D2AC2EE011A9FED391A0D
:1056000080EE012A334E20363668C6F3080601EED6
:10561000106AB8EE411A32EE011AB7EE002A31EEE6
:10562000021A61EE810A3DE04EE01DE001EE101A23
:10563000B8EE411ADFED2E1A81EE812A9FED291A6C
:10564000C0EE011A234E20363668C6F3080601EE76
:10565000106AB8EE411A31EE811AF7EE001A31EEF7
:10566000211A62EE010A1DE001EE101AB8EE411A8D
:105670009FED1E2AC2EE011A9FED1A1A80EE012A32
:10568000144E20363668C6F3080601EE106AB8EEEE
:10569000411A32EE011AB7EE002A31EE021A61EE1B
:1056A000810A00BF00BF0B4E20363668C6F346267F
:1056B000721C01EE102AB8EE411AC0EE811ABCEE3F
:1056C000E11A11EE100A00E0002001E0034800BFDB
:1056D00000BFF0BD104402580090D00300093D0007
:1056E00040787D01000000460024744C0024744A78
:1056F00020BCBE4B2DE9F047044614B90120BDE89B
:10570000F087207800F00100002870D0FA48006887
:1057100000F03808F8481830D0F80090B8F1100FB1
:1057200006D0B8F1180F0FD109F0030002280BD1F1
:10573000F14810380068C0F3404000286AD0606823
:10574000002867D10120DAE700BF6068B0F5803F2C
:1057500008D1E9481038006840F48030E649103933
:1057600008602EE0606868B9E3481038006820F4EB
:105770008030E149103908600846006820F4802034
:1057800008601EE06068B0F5A02F0DD1DA4810382F
:10579000006840F48020D849103908600846006845
:1057A00040F4803008600CE0D3481038006820F4E2
:1057B0008030D149103908600846006820F4802004
:1057C000086000BF606898B1FEF740FB054606E040
:1057D000FEF73CFB401B642801D903208FE7C64835
:1057E00010380068C0F340400028F1D012E012E009
:1057F000FEF72CFB054606E0FEF728FB401B64285D
:1058000001D903207BE7BC4810380068C0F3404052
:105810000028F1D100BF207800F00200022874D1E6
:10582000B548006800F03808B3481830D0F8009048
:10583000B8F1000F05D0B8F1180F56D109F00300E8
:10584000D0BBAD4810380068C0F3800018B1E068E4
:1058500008B9012053E7A8481038006820F0190063
:10586000E1680843A44910390860FEF7EFFA0546DD
:1058700006E0FEF7EBFA401B022801D903203EE7C1
:105880009D4810380068C0F380000028F1D000BFA8
:10589000FEF7D6FA41F2030188421AD8206940285F
:1058A0000BD195480C38006820F47C3040F400306F
:1058B00091490C39086017E017E08F480C380068F0
:1058C00020F47C30216940EA01308B490C390860B2
:1058D0000AE089480C38006820F0FE40217C40EA4C
:1058E000016085490C39086066E0E06888B3824849
:1058F0001038006820F01900E16808437E4910392B
:105900000860FEF7A3FA054607E056E0FEF79EFAA8
:10591000401B022801D90320F1E6774810380068BF
:10592000C0F380000028F1D000BFFEF789FA41F2F1
:10593000030188421AD8206940280BD16E480C38E0
:10594000006820F47C3040F400306B490C3908606A
:1059500017E017E068480C38006820F47C302169B3
:1059600040EA013064490C3908600AE062480C38AA
:10597000006820F0FE40217C40EA01605E490C395D
:10598000086019E05C481038006820F001005A49AE
:1059900010390860FEF75AFA054606E0FEF756FA97
:1059A000401B022801D90320A9E65348103800689B
:1059B000C0F380000028F1D100BF207800F0100073
:1059C00010287CD14C48006800F038084A4818304C
:1059D000D0F80090B8F1080F06D0B8F1180F3DD1FB
:1059E00009F00300012839D1434810380068C0F39A
:1059F000002020B1E069802801D001207FE600BFAF
:105A0000FEF71EFA41F2030188421AD8206A2028C4
:105A10000AD139480C38006820F0F84040F0804046
:105A200035490C39086018E033480C38006820F01C
:105A3000F84094F8201040EA81602F490C39086042
:105A40000BE02D48001F006820F07C5094F82010D7
:105A500040EA01602849091F086066E0E06978B300
:105A600025481038006840F080002349103908604C
:105A7000FEF7ECF9054606E0FEF7E8F9401B0228C0
:105A800001D903203BE61C4810380068C0F3002011
:105A90000028F1D000BFFEF7D3F941F2030188429C
:105AA0001CD8206A20280CD113480C38006820F03C
:105AB000F84040F0804010490C3908601AE035E0A9
:105AC0001CE00D480C38006820F0F84094F82010D5
:105AD00040EA816008490C3908600BE00648001F65
